:100000008EC095C094C093C092C091C090C08FC064
:100010008EC08DC08CC08BC08AC089C088C00000D3
:1000200000000000000000000000000001010101CC
:100030000102020202030303040405050506060784
:1000400007080809090A0B0B0C0C0D0E0F0F1011F5
:10005000111213141516161718191A1B1C1D1E1F22
:100060002021222324252628292A2B2C2D2F30310C
:100070003234353637393A3B3D3E404142444547BC
:1000800048494B4C4E4F5152545557585A5B5D5E40
:100090006062636566686A6B6D6E707273757678A0
:1000A0007A7B7D7E8082838587888A8B8D8F9092F4
:1000B000949597989A9C9D9FA0A2A3A5A7A8AAAB48
:1000C000ADAEB0B1B3B4B6B7B9BABCBDBFC0C1C3B1
:1000D000C4C6C7C8CACBCCCECFD0D1D3D4D5D6D73F
:1000E000D9DADBDCDDDEDFE0E2E3E4E5E6E7E8E801
:1000F000E9EAEBECEDEEEFEFF0F1F2F2F3F4F4F508
:10010000F6F6F7F7F8F8F9F9FAFAFBFBFBFCFCFC5A
:10011000FDFDFDFDFEFEFEFEFEFEFEFEFEFF1124C9
:100120001FBECFE5D2E0DEBFCDBFA2D02CC168CFCD
:100130008823C1F0C29A0000000000000000000007
:1001400000000000000000000000000000000000AF
:10015000C298000000000000000000000000000045
:1001600000000895C29A0000000000000000C2983C
:10017000000000000000000000000000000000007F
:10018000000000000000000000000895CF93DF93FE
:10019000D82FC8E08D2F881F8827881FC9DFDD0F63
:1001A000C150C1F7DF91CF91089530E020E02817CA
:1001B00039070CF00895ECE1F0E13197F1F700C058
:1001C00000002F5F3F4FF3CFBA9A0895CF93DF938C
:1001D000D82F862FC42FDADF8D2FD8DF8C2FDF9119
:1001E000CF91D4CF86E28A95F1F700C00895FF92AF
:1001F0000F931F93CF93DF93D62FC42F19D0182FAF
:100200008D2F16D0082F8C2F13D0F82EC0E1D0E000
:100210004F2D602F812FDADF2197D1F786E28A9563
:10022000F1F700C0DF91CF911F910F91FF900895DA
:10023000E82FF0E0E25EFF4F84910895CF92DF92C5
:10024000EF92FF9269017A01261B370B480B590B7D
:10025000CA01B9012FEF30E040E050E045D0A701DE
:1002600096016FD0822FFF90EF90DF90CF9008958E
:10027000BA9ABB98C39AD0E0C0E000E016E08CE1E7
:1002800090E10197F1F700C00000CE010196B8019E
:1002900044D0EC012D2F332723303105E1F058F401
:1002A0002130310599F04C2F6FEF22303105B1F03C
:1002B00040E0682F09C02430310591F0482F409567
:1002C00060E025303105A1F78FEF03C040E06FEF0C
:1002D00080958DDFD4CF4FEF6C2F609580E0F9CF04
:1002E0004FEF60E08C2FF5CFEE27FF27AA27BB2723
:1002F00008C0A20FB31FE41FF51F220F331F441FB6
:10030000551F969587957795679598F37040A9F74F
:10031000009799F7BD01CF010895AA1BBB1B51E1BE
:1003200007C0AA1FBB1FA617B70710F0A61BB70B65
:10033000881F991F5A95A9F780959095BC01CD010A
:100340000895A1E21A2EAA1BBB1BFD010DC0AA1F16
:10035000BB1FEE1FFF1FA217B307E407F50720F02E
:10036000A21BB30BE40BF50B661F771F881F991FA9
:100370001A9469F760957095809590959B01AC01F2
:0A038000BD01CF010895F894FFCFEE
:00000001FF
